:020000040800F2
:100000006006002031020008390200083B020008A7
:100010003D0200083F020008410200080000000005
:100020000000000000000000000000004302000883
:1000300045020008000000004702000849020008CD
:100040004B0200084B0200084B0200084B0200085C
:100050004B0200084B0200084B0200084B0200084C
:100060004B0200084B0200084B0200084B0200083C
:100070004B0200084B0200084B0200084B0200082C
:100080004B0200084B0200084B0200084B0200081C
:100090004B0200084B0200084B0200084B0200080C
:1000A0004B0200084B0200084B0200084B020008FC
:1000B0004B0200084B0200084B0200084B020008EC
:1000C0004B0200084B0200084B0200084B020008DC
:1000D0004B0200084B0200084B0200084B020008CC
:1000E0004B0200084B0200084B0200084B020008BC
:1000F0004B0200084B0200084B0200084B020008AC
:100100004B0200084B0200084B0200084B0200089B
:100110004B0200084B0200084B0200084B0200088B
:100120004B0200084B0200084B0200084B0200087B
:100130004B0200084B0200084B0200084B0200086B
:100140004B0200084B0200084B0200084B0200085B
:100150004B0200084B0200084B0200084B0200084B
:100160004B0200084B0200084B0200084B0200083B
:100170004B0200084B0200084B0200080000000080
:100180004B0200084B0200084B0200084B0200081B
:100190004B0200084B0200084B0200084B0200080B
:1001A0004B0200084B0200084B02000800F002F866
:1001B00000F02EF80AA090E8000C82448344AAF1D3
:1001C0000107DA4501D100F023F8AFF2090EBAE8D1
:1001D0000F0013F0010F18BFFB1A43F0010318477B
:1001E000F00100000002000000230024002500268A
:1001F000103A28BF78C1FBD8520728BF30C148BF8A
:100200000B6070471FB500F0D5F81FBD10B510BDCD
:1002100000F031F81146FFF7F5FF00F09FF800F00D
:100220004FF803B4FFF7F2FF03BC00F057F80000EB
:100230000948804709480047FEE7FEE7FEE7FEE77A
:10024000FEE7FEE7FEE7FEE7FEE7FEE704480549B6
:10025000054A064B70470000ED020008AD0100089A
:100260006000002060060020600200206002002084
:10027000704770477047754600F02CF8AE46050091
:100280006946534620F00700854618B020B5FFF7B1
:10029000DDFFBDE820404FF000064FF000074FF0B3
:1002A00000084FF0000BAC46ACE8C009ACE8C00950
:1002B000ACE8C009ACE8C00921F007018D467047E1
:1002C00010B50446AFF300802046BDE81040FFF7AC
:1002D000A8BF000000487047000000200149182016
:1002E000ABBEFEE726000200704700004EF68850C5
:1002F000CEF20000016841F47001016043F6000095
:10030000C4F20200016841F00101016043F60801F6
:10031000C4F2020100220A6001684FF6FF73CFF6B3
:10032000F6631940016043F60401C4F2020143F28E
:100330001003C2F200430B60016821F480210160C8
:1003400043F60C00C4F2020002604EF60850CEF2F2
:1003500000004FF0006101607047000081B043F67B
:100360003002C4F20202136840F2144044F2402109
:1003700043F00203C4F20200C0F20F0113604FF019
:10038000010C002340F814CCC0F800C0009300BF5B
:10039000009A8A4204DA00BF009A01320092F7E71D
:1003A00003600093009A8A42EEDA00BF009A01329D
:1003B0000092F7E7F1EE100A4FF6FF71C0F2C0317C
:1003C00020EA010040F04070E1EE100A70470000A2
:1003D000E00300080000002060060000E8010008BB
:0400000508000231BC
:00000001FF
